12345612345678901900000000000000TES 13827569969TES               OHS-1             Garrett Gonzales  010101
12345612345678901900000000000000TES 63836561842TES               OHS-2             Jon Brock         010101
12345612345678909900000000000000TES 74772128649TES               OHS-3             Bobby Pope        010101
12345612345678909900000000000000TES 46283421922TES               OHS-4             Jackson Alexander 010101
12345612345678901900000000000000TES 91919784690TES               OHS-5             Josie Wells       010101
12345612345678901800000000000000TES 8035200136 TES               OHS-6             Matthew Malone    010101
12345612345678901700000000000000TES 84857649123TES               OHS-7             Danny Hicks       010101
12345612345678900100000000000000TES 80289470660TES               OHS-8             Milton Meyer      010101
12345612345678909900000000000000TES 27891585278TES               OHS-9             Harriett Rice     010101
12345612345678900100000000000000TES 65937341237TES               OHS-10            Bill Gregory      010101
12345612345678900100000000000000TES 31164427847TES               OHS-11            Sylvia Rhodes     010101
12345612345678901700000000000000TES 47558702552TES               OHS-12            Lou Cooper        010101
12345612345678900100000000000000TES 59936922113TES               OHS-13            Roxie Rios        010101
12345612345678901900000000000000TES 50958140614TES               OHS-14            Nina Andrews      010101
12345612345678901900000000000000TES 56066702376TES               OHS-15            Gussie Barnett    010101
12345612345678900100000000000000TES 22218314675TES               OHS-16            Willie Tran       010101
12345612345678901800000000000000TES 97779634734TES               OHS-17            Jordan McKinney   010101
12345612345678901900000000000000TES 46933112899TES               OHS-18            May Wood          010101
12345612345678909900000000000000TES 68991432362TES               OHS-19            Ivan Jackson      010101
12345612345678909900000000000000TES 25210685912TES               OHS-20            Jeffrey Alvarez   010101
12345612345678900100000000000000TES 40884443279TES               OHS-21            Flora Wilkins     010101
12345612345678900100000000000000TES 18014417147TES               OHS-22            Joshua McKinney   010101
12345612345678909900000000000000TES 63537446898TES               OHS-23            Nora Greene       010101
12345612345678901800000000000000TES 5474812771 TES               OHS-24            Vera Page         010101
12345612345678901900000000000000TES 68661207938TES               OHS-25            Justin Boyd       010101
12345612345678901700000000000000TES 63251565210TES               OHS-26            Katie Reed        010101
12345612345678901700000000000000TES 53330335184TES               OHS-27            Charlotte Nunez   010101
12345612345678901900000000000000TES 90894892718TES               OHS-28            Robert Stanley    010101
12345612345678901900000000000000TES 33082912304TES               OHS-29            Mittie Snyder     010101
12345612345678901800000000000000TES 51995244483TES               OHS-30            Dean Stevenson    010101
12345612345678900100000000000000TES 18708293583TES               OHS-31            Victor Wheeler    010101
12345612345678900100000000000000TES 95373559743TES               OHS-32            Ora Holt          010101
12345612345678909900000000000000TES 48039987427TES               OHS-33            Charlie Patton    010101
12345612345678900100000000000000TES 9952221392 TES               OHS-34            Margaret Flores   010101
12345612345678901900000000000000TES 12912811968TES               OHS-35            Melvin Stokes     010101
12345612345678901800000000000000TES 81572024175TES               OHS-36            Lucinda Phelps    010101
12345612345678901900000000000000TES 79351529502TES               OHS-37            Ella Morton       010101
12345612345678901700000000000000TES 91072795540TES               OHS-38            Willie Wright     010101
12345612345678901700000000000000TES 78457793034TES               OHS-39            Glenn Holmes      010101
12345612345678901800000000000000TES 59242218104TES               OHS-40            Cole Cooper       010101
12345612345678901800000000000000TES 29448410822TES               OHS-41            Jeremy Olson      010101
12345612345678901900000000000000TES 3538064589 TES               OHS-42            Tillie Clarke     010101
12345612345678909900000000000000TES 68505838164TES               OHS-43            Joseph Pierce     010101
12345612345678901800000000000000TES 57445171010TES               OHS-44            Estella Morgan    010101
12345612345678901700000000000000TES 6936927583 TES               OHS-45            Terry Casey       010101
12345612345678909900000000000000TES 87891434738TES               OHS-46            Eric Perry        010101
12345612345678901800000000000000TES 83058455190TES               OHS-47            Jerome Weaver     010101
12345612345678901900000000000000TES 71993976924TES               OHS-48            Nathan Owens      010101
12345612345678900100000000000000TES 13625852415TES               OHS-49            Wayne Houston     010101
12345612345678909900000000000000TES 3589682724 TES               OHS-50            Ernest Freeman    010101
12345612345678909900000000000000TES 86270297714TES               OHS-51            Marvin Reeves     010101
12345612345678901800000000000000TES 58487139060TES               OHS-52            Margaret Munoz    010101
12345612345678900100000000000000TES 82786897337TES               OHS-53            Francisco Crawford010101
12345612345678901800000000000000TES 7549364889 TES               OHS-54            Victoria Franklin 010101
12345612345678901900000000000000TES 29859010293TES               OHS-55            Donald Blake      010101
12345612345678900100000000000000TES 37245065812TES               OHS-56            Helen Atkins      010101
12345612345678901800000000000000TES 44614350097TES               OHS-57            Connor Henderson  010101
12345612345678900100000000000000TES 13005407574TES               OHS-58            Albert Watson     010101
12345612345678900100000000000000TES 55199031928TES               OHS-59            Stella Matthews   010101
12345612345678901700000000000000TES 4146208079 TES               OHS-60            Hester Padilla    010101
12345612345678901900000000000000TES 83461682940TES               OHS-61            Harold Copeland   010101
12345612345678901700000000000000TES 10726816091TES               OHS-62            Alejandro Graham  010101
12345612345678901700000000000000TES 74213085300TES               OHS-63            Marcus Rowe       010101
12345612345678901900000000000000TES 49938132428TES               OHS-64            Pearl Knight      010101
12345612345678901900000000000000TES 63690870255TES               OHS-65            William James     010101
12345612345678901900000000000000TES 81016188510TES               OHS-66            Jason Neal        010101
12345612345678901900000000000000TES 86808899091TES               OHS-67            Logan Reed        010101
12345612345678901800000000000000TES 15214640322TES               OHS-68            Dora Alexander    010101
12345612345678900100000000000000TES 98410009476TES               OHS-69            Ina Elliott       010101
12345612345678901700000000000000TES 99265975644TES               OHS-70            Floyd Mason       010101
12345612345678900100000000000000TES 56269401614TES               OHS-71            Hannah Dennis     010101
12345612345678901900000000000000TES 35875331867TES               OHS-72            Albert Wilson     010101
12345612345678901700000000000000TES 61520827212TES               OHS-73            Isabelle Vargas   010101
12345612345678900100000000000000TES 17371348245TES               OHS-74            Mittie Guzman     010101
12345612345678900100000000000000TES 39560680627TES               OHS-75            Irene Fields      010101
12345612345678900100000000000000TES 70113096433TES               OHS-76            Johnny Sparks     010101
12345612345678909900000000000000TES 95804341649TES               OHS-77            Dora Evans        010101
12345612345678900100000000000000TES 58365705539TES               OHS-78            Anthony Ross      010101
12345612345678900100000000000000TES 3592764843 TES               OHS-79            Jay Lee           010101
12345612345678900100000000000000TES 60816115374TES               OHS-80            Randall Maldonado 010101
12345612345678901700000000000000TES 72879789071TES               OHS-81            Brent Massey      010101
12345612345678901900000000000000TES 58916545310TES               OHS-82            Maurice Duncan    010101
12345612345678909900000000000000TES 56372101605TES               OHS-83            Arthur Sanders    010101
12345612345678901800000000000000TES 61632656795TES               OHS-84            Leo Walker        010101
12345612345678909900000000000000TES 87961593736TES               OHS-85            Jose Jordan       010101
12345612345678901800000000000000TES 18977409089TES               OHS-86            Irene Ellis       010101
12345612345678900100000000000000TES 81210698513TES               OHS-87            Frances Holmes    010101
12345612345678900100000000000000TES 25950026908TES               OHS-88            Lida Coleman      010101
12345612345678901700000000000000TES 91024415241TES               OHS-89            David Parker      010101
12345612345678901900000000000000TES 36406595004TES               OHS-90            Jose Harrington   010101
12345612345678909900000000000000TES 88844265416TES               OHS-91            Maggie Adams      010101
12345612345678901900000000000000TES 85720463050TES               OHS-92            Kathryn Alexander 010101
12345612345678909900000000000000TES 59123978391TES               OHS-93            Bryan Lowe        010101
12345612345678901900000000000000TES 88201527926TES               OHS-94            Evelyn Ballard    010101
12345612345678901900000000000000TES 85994544532TES               OHS-95            Gavin Taylor      010101
12345612345678901800000000000000TES 85532031883TES               OHS-96            Addie Lewis       010101
12345612345678901700000000000000TES 49238468148TES               OHS-97            Mike Miller       010101
12345612345678901800000000000000TES 98329345788TES               OHS-98            Lucille Newman    010101
12345612345678901800000000000000TES 86504534213TES               OHS-99            Clara Wagner      010101
12345612345678901700000000000000TES 19442222640TES               OHS-100           Lizzie Cobb       010101
